{
  "contractName": "TestContract",
  "abi": [
    {
      "constant": true,
      "inputs": [],
      "name": "TestNum",
      "outputs": [
        {
          "name": "",
          "type": "uint256"
        }
      ],
      "payable": false,
      "stateMutability": "view",
      "type": "function",
      "signature": "0xc6464ca7"
    },
    {
      "constant": false,
      "inputs": [],
      "name": "incrementTestNum",
      "outputs": [],
      "payable": false,
      "stateMutability": "nonpayable",
      "type": "function",
      "signature": "0x6a626921"
    }
  ],
  "bytecode": "0x6080604052600260005534801561001557600080fd5b5060cf806100246000396000f3fe6080604052600436106049576000357c0100000000000000000000000000000000000000000000000000000000900463ffffffff1680636a62692114604e578063c6464ca7146062575b600080fd5b348015605957600080fd5b506060608a565b005b348015606d57600080fd5b506074609d565b6040518082815260200191505060405180910390f35b6000808154809291906001019190505550565b6000548156fea165627a7a72305820e11375050452b27c1665de8804b3d8d0bcb1b57d189caf8006c5a723edf144df0029",
  "source": "pragma solidity ^0.5.0;\n\ncontract TestContract {\n    uint public TestNum  = 2;\n    function incrementTestNum() public {\n        TestNum++;\n    }\n}",
  "sourcePath": "/home/saheel/projects/ethreum-projects/eth-basic/contracts/TestContract.sol",
  "compiler": {
    "name": "solc",
    "version": "0.5.0+commit.1d4f565a.Emscripten.clang"
  },
  "schemaVersion": "3.0.1",
  "updatedAt": "2019-04-27T21:26:33.243Z",
  "devdoc": {
    "methods": {}
  },
  "userdoc": {
    "methods": {}
  }
}