{
  "contractName": "Adoption",
  "abi": [
    {
      "constant": false,
      "inputs": [
        {
          "name": "_petId",
          "type": "uint256"
        }
      ],
      "name": "adopt",
      "outputs": [
        {
          "name": "",
          "type": "uint256"
        }
      ],
      "payable": false,
      "stateMutability": "nonpayable",
      "type": "function",
      "signature": "0x8588b2c5"
    },
    {
      "constant": true,
      "inputs": [],
      "name": "getAdopters",
      "outputs": [
        {
          "name": "",
          "type": "address[16]"
        }
      ],
      "payable": false,
      "stateMutability": "view",
      "type": "function",
      "signature": "0x3de4eb17"
    }
  ],
  "bytecode": "0x608060405234801561001057600080fd5b50610239806100206000396000f3fe60806040526004361061004c576000357c0100000000000000000000000000000000000000000000000000000000900463ffffffff1680633de4eb17146100515780638588b2c5146100a4575b600080fd5b34801561005d57600080fd5b506100666100f3565b6040518082601060200280838360005b83811015610091578082015181840152602081019050610076565b5050505090500191505060405180910390f35b3480156100b057600080fd5b506100dd600480360360208110156100c757600080fd5b8101908080359060200190929190505050610174565b6040518082815260200191505060405180910390f35b6100fb6101e9565b600060108060200260405190810160405280929190826010801561016a576020028201915b8160009054906101000a900473ffffffffffffffffffffffffffffffffffffffff1673ffffffffffffffffffffffffffffffffffffffff1681526020019060010190808311610120575b5050505050905090565b60008082101580156101875750600f8211155b151561019257600080fd5b336000836010811015156101a257fe5b0160006101000a81548173ffffffffffffffffffffffffffffffffffffffff021916908373ffffffffffffffffffffffffffffffffffffffff160217905550819050919050565b6102006040519081016040528060109060208202803883398082019150509050509056fea165627a7a72305820aaaca928e478915430e6d609a0e09b06635746f26439cc0076ad7cd2f9bbdda90029",
  "source": "pragma solidity ^0.5.0;\n\ncontract Adoption {\n    address[16] adopters;\n    //adopting a pet\n    function adopt(uint  _petId) public returns (uint) {\n        require(_petId >=0 && _petId <=15 );\n\n        adopters[_petId] = msg.sender;\n        return _petId;\n    }\n    //retrieving the adopters\n    function getAdopters() public view returns (address[16] memory){\n        //memory gives storage location for variable    \n        return adopters;\n    }\n}",
  "sourcePath": "/home/saheel/projects/ethreum-projects/ethreum-petshop/contracts/Adoption.sol",
  "compiler": {
    "name": "solc",
    "version": "0.5.0+commit.1d4f565a.Emscripten.clang"
  },
  "schemaVersion": "3.0.1",
  "updatedAt": "2019-04-26T18:12:40.984Z",
  "devdoc": {
    "methods": {}
  },
  "userdoc": {
    "methods": {}
  }
}